{
  "contractName": "Art",
  "abi": [
    {
      "constant": true,
      "inputs": [],
      "name": "artId",
      "outputs": [
        {
          "name": "",
          "type": "uint256"
        }
      ],
      "payable": false,
      "stateMutability": "view",
      "type": "function"
    },
    {
      "constant": true,
      "inputs": [],
      "name": "artName",
      "outputs": [
        {
          "name": "",
          "type": "string"
        }
      ],
      "payable": false,
      "stateMutability": "view",
      "type": "function"
    },
    {
      "constant": true,
      "inputs": [],
      "name": "owner",
      "outputs": [
        {
          "name": "",
          "type": "uint256"
        }
      ],
      "payable": false,
      "stateMutability": "view",
      "type": "function"
    },
    {
      "constant": true,
      "inputs": [
        {
          "name": "",
          "type": "uint256"
        }
      ],
      "name": "history",
      "outputs": [
        {
          "name": "",
          "type": "address"
        }
      ],
      "payable": false,
      "stateMutability": "view",
      "type": "function"
    },
    {
      "inputs": [
        {
          "name": "_artId",
          "type": "uint256"
        },
        {
          "name": "_artName",
          "type": "string"
        },
        {
          "name": "_owner",
          "type": "uint256"
        }
      ],
      "payable": true,
      "stateMutability": "payable",
      "type": "constructor"
    },
    {
      "constant": true,
      "inputs": [],
      "name": "getArtInfo",
      "outputs": [
        {
          "name": "",
          "type": "uint256"
        },
        {
          "name": "",
          "type": "string"
        },
        {
          "name": "",
          "type": "uint256"
        }
      ],
      "payable": false,
      "stateMutability": "view",
      "type": "function"
    },
    {
      "constant": true,
      "inputs": [],
      "name": "getHistory",
      "outputs": [
        {
          "name": "",
          "type": "address[]"
        }
      ],
      "payable": false,
      "stateMutability": "view",
      "type": "function"
    },
    {
      "constant": false,
      "inputs": [
        {
          "name": "t",
          "type": "address"
        }
      ],
      "name": "addHistory",
      "outputs": [],
      "payable": true,
      "stateMutability": "payable",
      "type": "function"
    },
    {
      "constant": false,
      "inputs": [
        {
          "name": "o",
          "type": "uint256"
        }
      ],
      "name": "changeOwner",
      "outputs": [],
      "payable": true,
      "stateMutability": "payable",
      "type": "function"
    }
  ],
  "bytecode": "0x60806040526040516107ab3803806107ab8339810180604052606081101561002657600080fd5b8101908080519060200190929190805164010000000081111561004857600080fd5b8281019050602081018481111561005e57600080fd5b815185600182028301116401000000008211171561007b57600080fd5b5050929190602001805190602001909291905050508260018190555081600090805190602001906100ad9291906100bd565b5080600281905550505050610162565b828054600181600116156101000203166002900490600052602060002090601f016020900481019282601f106100fe57805160ff191683800117855561012c565b8280016001018555821561012c579182015b8281111561012b578251825591602001919060010190610110565b5b509050610139919061013d565b5090565b61015f91905b8082111561015b576000816000905550600101610143565b5090565b90565b61063a806101716000396000f3fe60806040526004361061008e576000357c0100000000000000000000000000000000000000000000000000000000900463ffffffff16806342f74cd714610093578063514ad1f514610131578063572aee1f1461015c5780638da5cb5b146101ec578063924c19f7146102175780639304821814610245578063a7a38f0b14610289578063aa15efc814610304575b600080fd5b34801561009f57600080fd5b506100a8610370565b6040518084815260200180602001838152602001828103825284818151815260200191508051906020019080838360005b838110156100f45780820151818401526020810190506100d9565b50505050905090810190601f1680156101215780820380516001836020036101000a031916815260200191505b5094505050505060405180910390f35b34801561013d57600080fd5b50610146610425565b6040518082815260200191505060405180910390f35b34801561016857600080fd5b5061017161042b565b6040518080602001828103825283818151815260200191508051906020019080838360005b838110156101b1578082015181840152602081019050610196565b50505050905090810190601f1680156101de5780820380516001836020036101000a031916815260200191505b509250505060405180910390f35b3480156101f857600080fd5b506102016104c9565b6040518082815260200191505060405180910390f35b6102436004803603602081101561022d57600080fd5b81019080803590602001909291905050506104cf565b005b6102876004803603602081101561025b57600080fd5b81019080803573ffffffffffffffffffffffffffffffffffffffff1690602001909291905050506104d9565b005b34801561029557600080fd5b506102c2600480360360208110156102ac57600080fd5b8101908080359060200190929190505050610542565b604051808273ffffffffffffffffffffffffffffffffffffffff1673ffffffffffffffffffffffffffffffffffffffff16815260200191505060405180910390f35b34801561031057600080fd5b50610319610580565b6040518080602001828103825283818151815260200191508051906020019060200280838360005b8381101561035c578082015181840152602081019050610341565b505050509050019250505060405180910390f35b6000606060006001546000600254818054600181600116156101000203166002900480601f0160208091040260200160405190810160405280929190818152602001828054600181600116156101000203166002900480156104135780601f106103e857610100808354040283529160200191610413565b820191906000526020600020905b8154815290600101906020018083116103f657829003601f168201915b50505050509150925092509250909192565b60015481565b60008054600181600116156101000203166002900480601f0160208091040260200160405190810160405280929190818152602001828054600181600116156101000203166002900480156104c15780601f10610496576101008083540402835291602001916104c1565b820191906000526020600020905b8154815290600101906020018083116104a457829003601f168201915b505050505081565b60025481565b8060028190555050565b60038190806001815401808255809150509060018203906000526020600020016000909192909190916101000a81548173ffffffffffffffffffffffffffffffffffffffff021916908373ffffffffffffffffffffffffffffffffffffffff1602179055505050565b60038181548110151561055157fe5b906000526020600020016000915054906101000a900473ffffffffffffffffffffffffffffffffffffffff1681565b6060600380548060200260200160405190810160405280929190818152602001828054801561060457602002820191906000526020600020905b8160009054906101000a900473ffffffffffffffffffffffffffffffffffffffff1673ffffffffffffffffffffffffffffffffffffffff16815260200190600101908083116105ba575b505050505090509056fea165627a7a72305820b6e2918a816f3c35705774f08c143c5c649c321bc64de9e038b271f7eaa825380029",
  "source": "pragma solidity ^0.5.0;\r\nimport \"./Transaction.sol\";\r\n\r\ncontract Art {\r\n  string public artName;\r\n  uint public artId;\r\n  uint public owner;\r\n  Transaction[] public history;\r\n  constructor(uint _artId, string memory _artName, uint _owner) public payable {\r\n    artId = _artId;\r\n    artName = _artName;\r\n    owner = _owner;\r\n  }\r\n  function getArtInfo() public view returns(uint, string memory, uint) {\r\n    return (artId, artName, owner);\r\n  }\r\n  function getHistory() public view returns(Transaction[] memory) {\r\n    return history;\r\n  }\r\n  function addHistory(Transaction t) public payable {\r\n      history.push(t);\r\n  }\r\n  function changeOwner(uint o) public payable {\r\n      owner = o;\r\n  }\r\n}",
  "sourcePath": "C:\\Users\\user\\Desktop\\dapp-gallery\\contracts\\Art.sol",
  "compiler": {
    "name": "solc",
    "version": "0.5.0+commit.1d4f565a.Emscripten.clang"
  },
  "schemaVersion": "3.0.9",
  "updatedAt": "2019-05-17T08:33:11.594Z",
  "devdoc": {
    "methods": {}
  },
  "userdoc": {
    "methods": {}
  }
}