{
  "contractName": "Arts",
  "abi": [
    {
      "inputs": [
        {
          "name": "_array",
          "type": "address[]"
        },
        {
          "name": "_p",
          "type": "address[]"
        }
      ],
      "payable": true,
      "stateMutability": "payable",
      "type": "constructor"
    },
    {
      "constant": false,
      "inputs": [
        {
          "name": "_artId",
          "type": "uint256"
        }
      ],
      "name": "getArtInfo",
      "outputs": [
        {
          "name": "",
          "type": "uint256"
        },
        {
          "name": "",
          "type": "string"
        },
        {
          "name": "",
          "type": "string"
        },
        {
          "name": "",
          "type": "address[]"
        }
      ],
      "payable": true,
      "stateMutability": "payable",
      "type": "function"
    },
    {
      "constant": false,
      "inputs": [
        {
          "name": "_id",
          "type": "uint256"
        },
        {
          "name": "_name",
          "type": "string"
        }
      ],
      "name": "addPeople",
      "outputs": [],
      "payable": true,
      "stateMutability": "payable",
      "type": "function"
    },
    {
      "constant": false,
      "inputs": [
        {
          "name": "_artId",
          "type": "uint256"
        },
        {
          "name": "name",
          "type": "string"
        },
        {
          "name": "owner",
          "type": "uint256"
        }
      ],
      "name": "addArt",
      "outputs": [],
      "payable": true,
      "stateMutability": "payable",
      "type": "function"
    },
    {
      "constant": true,
      "inputs": [],
      "name": "Time_call",
      "outputs": [
        {
          "name": "",
          "type": "uint256"
        }
      ],
      "payable": false,
      "stateMutability": "view",
      "type": "function"
    },
    {
      "constant": false,
      "inputs": [
        {
          "name": "_transactionId",
          "type": "uint256"
        },
        {
          "name": "oldOwner",
          "type": "uint256"
        },
        {
          "name": "newOwner",
          "type": "uint256"
        },
        {
          "name": "art",
          "type": "uint256"
        },
        {
          "name": "_price",
          "type": "uint256"
        }
      ],
      "name": "applyTransaction",
      "outputs": [],
      "payable": true,
      "stateMutability": "payable",
      "type": "function"
    }
  ],
  "bytecode": "0x608060405260405162002edb38038062002edb833981018060405262000029919081019062000357565b81600090805190602001906200004192919062000063565b5080600190805190602001906200005a929190620000f2565b505050620004a6565b828054828255906000526020600020908101928215620000df579160200282015b82811115620000de5782518260006101000a81548173ffffffffffffffffffffffffffffffffffffffff021916908373ffffffffffffffffffffffffffffffffffffffff1602179055509160200191906001019062000084565b5b509050620000ee919062000181565b5090565b8280548282559060005260206000209081019282156200016e579160200282015b828111156200016d5782518260006101000a81548173ffffffffffffffffffffffffffffffffffffffff021916908373ffffffffffffffffffffffffffffffffffffffff1602179055509160200191906001019062000113565b5b5090506200017d9190620001c7565b5090565b620001c491905b80821115620001c057600081816101000a81549073ffffffffffffffffffffffffffffffffffffffff02191690555060010162000188565b5090565b90565b6200020a91905b808211156200020657600081816101000a81549073ffffffffffffffffffffffffffffffffffffffff021916905550600101620001ce565b5090565b90565b600082601f83011215156200022157600080fd5b8151620002386200023282620003f8565b620003ca565b915081818352602084019350602081019050838560208402820111156200025e57600080fd5b60005b838110156200029257816200027788826200032b565b84526020840193506020830192505060018101905062000261565b5050505092915050565b600082601f8301121515620002b057600080fd5b8151620002c7620002c18262000421565b620003ca565b91508181835260208401935060208101905083856020840282011115620002ed57600080fd5b60005b8381101562000321578162000306888262000341565b845260208401935060208301925050600181019050620002f0565b5050505092915050565b60006200033982516200047e565b905092915050565b60006200034f825162000492565b905092915050565b600080604083850312156200036b57600080fd5b600083015167ffffffffffffffff8111156200038657600080fd5b62000394858286016200020d565b925050602083015167ffffffffffffffff811115620003b257600080fd5b620003c0858286016200029c565b9150509250929050565b6000604051905081810181811067ffffffffffffffff82111715620003ee57600080fd5b8060405250919050565b600067ffffffffffffffff8211156200041057600080fd5b602082029050602081019050919050565b600067ffffffffffffffff8211156200043957600080fd5b602082029050602081019050919050565b600062000457826200045e565b9050919050565b600073ffffffffffffffffffffffffffffffffffffffff82169050919050565b60006200048b826200044a565b9050919050565b60006200049f826200044a565b9050919050565b612a2580620004b66000396000f3fe60806040526004361062000073576000357c0100000000000000000000000000000000000000000000000000000000900463ffffffff16806303261030146200007857806311e9a7db14620000a85780637125901614620000c85780638f7d59b814620000e8578063f2fe88451462000108575b600080fd5b3480156200008557600080fd5b506200009062000141565b6040516200009f919062001657565b60405180910390f35b620000c66004803603620000c09190810190620014b9565b62000149565b005b620000e66004803603620000e091908101906200144a565b62000a48565b005b620001066004803603620001009190810190620013f0565b62000b43565b005b62000126600480360362000120919081019062001398565b62000c3b565b604051620001389493929190620016a8565b60405180910390f35b600042905090565b8284141515156200015957600080fd5b6000811115156200016957600080fd5b836002600084815260200190815260200160002060009054906101000a900473ffffffffffffffffffffffffffffffffffffffff1673ffffffffffffffffffffffffffffffffffffffff16638da5cb5b6040518163ffffffff167c010000000000000000000000000000000000000000000000000000000002815260040160206040518083038186803b1580156200020057600080fd5b505afa15801562000215573d6000803e3d6000fd5b505050506040513d601f19601f820116820180604052506200023b9190810190620013c4565b1415156200024857600080fd5b60008090505b6005600086815260200190815260200160002060009054906101000a900473ffffffffffffffffffffffffffffffffffffffff1673ffffffffffffffffffffffffffffffffffffffff1663632ca5c96040518163ffffffff167c010000000000000000000000000000000000000000000000000000000002815260040160006040518083038186803b158015620002e457600080fd5b505afa158015620002f9573d6000803e3d6000fd5b505050506040513d6000823e3d601f19601f820116820180604052506200032491908101906200130e565b51811015620005c0576002600084815260200190815260200160002060009054906101000a900473ffffffffffffffffffffffffffffffffffffffff1673ffffffffffffffffffffffffffffffffffffffff1663514ad1f56040518163ffffffff167c010000000000000000000000000000000000000000000000000000000002815260040160206040518083038186803b158015620003c357600080fd5b505afa158015620003d8573d6000803e3d6000fd5b505050506040513d601f19601f82011682018060405250620003fe9190810190620013c4565b6005600087815260200190815260200160002060009054906101000a900473ffffffffffffffffffffffffffffffffffffffff1673ffffffffffffffffffffffffffffffffffffffff1663632ca5c96040518163ffffffff167c010000000000000000000000000000000000000000000000000000000002815260040160006040518083038186803b1580156200049457600080fd5b505afa158015620004a9573d6000803e3d6000fd5b505050506040513d6000823e3d601f19601f82011682018060405250620004d491908101906200130e565b82815181101515620004e257fe5b906020019060200201511415620005b2576005600086815260200190815260200160002060009054906101000a900473ffffffffffffffffffffffffffffffffffffffff1673ffffffffffffffffffffffffffffffffffffffff1663f33b2f0d826040518263ffffffff167c01000000000000000000000000000000000000000000000000000000000281526004016200057d919062001657565b600060405180830381600087803b1580156200059857600080fd5b505af1158015620005ad573d6000803e3d6000fd5b505050505b80806001019150506200024e565b506005600084815260200190815260200160002060009054906101000a900473ffffffffffffffffffffffffffffffffffffffff1673ffffffffffffffffffffffffffffffffffffffff16638608e6bc836040518263ffffffff167c01000000000000000000000000000000000000000000000000000000000281526004016200064b919062001657565b600060405180830381600087803b1580156200066657600080fd5b505af11580156200067b573d6000803e3d6000fd5b505050506000856002600085815260200190815260200160002060009054906101000a900473ffffffffffffffffffffffffffffffffffffffff1673ffffffffffffffffffffffffffffffffffffffff1663514ad1f56040518163ffffffff167c010000000000000000000000000000000000000000000000000000000002815260040160206040518083038186803b1580156200071857600080fd5b505afa1580156200072d573d6000803e3d6000fd5b505050506040513d601f19601f82011682018060405250620007539190810190620013c4565b6002600086815260200190815260200160002060009054906101000a900473ffffffffffffffffffffffffffffffffffffffff1673ffffffffffffffffffffffffffffffffffffffff1663572aee1f6040518163ffffffff167c010000000000000000000000000000000000000000000000000000000002815260040160006040518083038186803b158015620007e957600080fd5b505afa158015620007fe573d6000803e3d6000fd5b505050506040513d6000823e3d601f19601f8201168201806040525062000829919081019062001353565b846200083462000141565b8989620008406200107a565b6200085297969594939291906200174e565b604051809103906000f0801580156200086f573d6000803e3d6000fd5b5090506002600084815260200190815260200160002060009054906101000a900473ffffffffffffffffffffffffffffffffffffffff1673ffffffffffffffffffffffffffffffffffffffff166393048218826040518263ffffffff167c0100000000000000000000000000000000000000000000000000000000028152600401620008fc91906200163a565b600060405180830381600087803b1580156200091757600080fd5b505af11580156200092c573d6000803e3d6000fd5b505050506002600084815260200190815260200160002060009054906101000a900473ffffffffffffffffffffffffffffffffffffffff1673ffffffffffffffffffffffffffffffffffffffff1663924c19f7856040518263ffffffff167c0100000000000000000000000000000000000000000000000000000000028152600401620009ba919062001657565b600060405180830381600087803b158015620009d557600080fd5b505af1158015620009ea573d6000803e3d6000fd5b50505050806003600088815260200190815260200160002060006101000a81548173ffffffffffffffffffffffffffffffffffffffff021916908373ffffffffffffffffffffffffffffffffffffffff160217905550505050505050565b600083838362000a576200108b565b62000a65939291906200170a565b604051809103906000f08015801562000a82573d6000803e3d6000fd5b50905060008190806001815401808255809150509060018203906000526020600020016000909192909190916101000a81548173ffffffffffffffffffffffffffffffffffffffff021916908373ffffffffffffffffffffffffffffffffffffffff16021790555050806002600086815260200190815260200160002060006101000a81548173ffffffffffffffffffffffffffffffffffffffff021916908373ffffffffffffffffffffffffffffffffffffffff16021790555050505050565b6000828262000b516200109c565b62000b5e92919062001674565b604051809103906000f08015801562000b7b573d6000803e3d6000fd5b50905060018190806001815401808255809150509060018203906000526020600020016000909192909190916101000a81548173ffffffffffffffffffffffffffffffffffffffff021916908373ffffffffffffffffffffffffffffffffffffffff16021790555050806005600085815260200190815260200160002060006101000a81548173ffffffffffffffffffffffffffffffffffffffff021916908373ffffffffffffffffffffffffffffffffffffffff160217905550505050565b600060608060606002600086815260200190815260200160002060009054906101000a900473ffffffffffffffffffffffffffffffffffffffff1673ffffffffffffffffffffffffffffffffffffffff1663514ad1f56040518163ffffffff167c010000000000000000000000000000000000000000000000000000000002815260040160206040518083038186803b15801562000cd857600080fd5b505afa15801562000ced573d6000803e3d6000fd5b505050506040513d601f19601f8201168201806040525062000d139190810190620013c4565b6002600087815260200190815260200160002060009054906101000a900473ffffffffffffffffffffffffffffffffffffffff1673ffffffffffffffffffffffffffffffffffffffff1663572aee1f6040518163ffffffff167c010000000000000000000000000000000000000000000000000000000002815260040160006040518083038186803b15801562000da957600080fd5b505afa15801562000dbe573d6000803e3d6000fd5b505050506040513d6000823e3d601f19601f8201168201806040525062000de9919081019062001353565b60056000600260008a815260200190815260200160002060009054906101000a900473ffffffffffffffffffffffffffffffffffffffff1673ffffffffffffffffffffffffffffffffffffffff16638da5cb5b6040518163ffffffff167c010000000000000000000000000000000000000000000000000000000002815260040160206040518083038186803b15801562000e8357600080fd5b505afa15801562000e98573d6000803e3d6000fd5b505050506040513d601f19601f8201168201806040525062000ebe9190810190620013c4565b815260200190815260200160002060009054906101000a900473ffffffffffffffffffffffffffffffffffffffff1673ffffffffffffffffffffffffffffffffffffffff166306fdde036040518163ffffffff167c010000000000000000000000000000000000000000000000000000000002815260040160006040518083038186803b15801562000f4f57600080fd5b505afa15801562000f64573d6000803e3d6000fd5b505050506040513d6000823e3d601f19601f8201168201806040525062000f8f919081019062001353565b6002600089815260200190815260200160002060009054906101000a900473ffffffffffffffffffffffffffffffffffffffff1673ffffffffffffffffffffffffffffffffffffffff1663aa15efc86040518163ffffffff167c010000000000000000000000000000000000000000000000000000000002815260040160006040518083038186803b1580156200102557600080fd5b505afa1580156200103a573d6000803e3d6000fd5b505050506040513d6000823e3d601f19601f82011682018060405250620010659190810190620012c9565b82925081915093509350935093509193509193565b6040516103b780620019c283390190565b6040516107ab8062001d7983390190565b6040516104c8806200252483390190565b600082601f8301121515620010c157600080fd5b8151620010d8620010d28262001800565b620017d2565b91508181835260208401935060208101905083856020840282011115620010fe57600080fd5b60005b83811015620011325781620011178882620011cb565b84526020840193506020830192505060018101905062001101565b5050505092915050565b600082601f83011215156200115057600080fd5b815162001167620011618262001829565b620017d2565b915081818352602084019350602081019050838560208402820111156200118d57600080fd5b60005b83811015620011c15781620011a68882620012b3565b84526020840193506020830192505060018101905062001190565b5050505092915050565b6000620011d9825162001925565b905092915050565b600082601f8301121515620011f557600080fd5b81516200120c620012068262001852565b620017d2565b915080825260208301602083018583830111156200122957600080fd5b620012368382846200197a565b50505092915050565b600082601f83011215156200125357600080fd5b81356200126a62001264826200187f565b620017d2565b915080825260208301602083018583830111156200128757600080fd5b620012948382846200196b565b50505092915050565b6000620012ab823562001939565b905092915050565b6000620012c1825162001939565b905092915050565b600060208284031215620012dc57600080fd5b600082015167ffffffffffffffff811115620012f757600080fd5b6200130584828501620010ad565b91505092915050565b6000602082840312156200132157600080fd5b600082015167ffffffffffffffff8111156200133c57600080fd5b6200134a848285016200113c565b91505092915050565b6000602082840312156200136657600080fd5b600082015167ffffffffffffffff8111156200138157600080fd5b6200138f84828501620011e1565b91505092915050565b600060208284031215620013ab57600080fd5b6000620013bb848285016200129d565b91505092915050565b600060208284031215620013d757600080fd5b6000620013e784828501620012b3565b91505092915050565b600080604083850312156200140457600080fd5b600062001414858286016200129d565b925050602083013567ffffffffffffffff8111156200143257600080fd5b62001440858286016200123f565b9150509250929050565b6000806000606084860312156200146057600080fd5b600062001470868287016200129d565b935050602084013567ffffffffffffffff8111156200148e57600080fd5b6200149c868287016200123f565b9250506040620014af868287016200129d565b9150509250925092565b600080600080600060a08688031215620014d257600080fd5b6000620014e2888289016200129d565b9550506020620014f5888289016200129d565b945050604062001508888289016200129d565b93505060606200151b888289016200129d565b92505060806200152e888289016200129d565b9150509295509295909350565b60006200154882620018b9565b8084526020840193506200155c83620018ac565b60005b82811015620015945762001575868351620015a0565b6200158082620018da565b91506020860195506001810190506200155f565b50849250505092915050565b620015ab8162001943565b82525050565b6000620015be82620018cf565b808452620015d48160208601602086016200197a565b620015df81620019b0565b602085010191505092915050565b6000620015fa82620018c4565b808452620016108160208601602086016200197a565b6200161b81620019b0565b602085010191505092915050565b62001634816200191b565b82525050565b6000602082019050620016516000830184620015a0565b92915050565b60006020820190506200166e600083018462001629565b92915050565b60006040820190506200168b600083018562001629565b81810360208301526200169f8184620015b1565b90509392505050565b6000608082019050620016bf600083018762001629565b8181036020830152620016d38186620015b1565b90508181036040830152620016e98185620015b1565b90508181036060830152620016ff81846200153b565b905095945050505050565b600060608201905062001721600083018662001629565b8181036020830152620017358185620015b1565b905062001746604083018462001629565b949350505050565b600060e08201905062001765600083018a62001629565b62001774602083018962001629565b8181036040830152620017888188620015ed565b905062001799606083018762001629565b620017a8608083018662001629565b620017b760a083018562001629565b620017c660c083018462001629565b98975050505050505050565b6000604051905081810181811067ffffffffffffffff82111715620017f657600080fd5b8060405250919050565b600067ffffffffffffffff8211156200181857600080fd5b602082029050602081019050919050565b600067ffffffffffffffff8211156200184157600080fd5b602082029050602081019050919050565b600067ffffffffffffffff8211156200186a57600080fd5b601f19601f8301169050602081019050919050565b600067ffffffffffffffff8211156200189757600080fd5b601f19601f8301169050602081019050919050565b6000602082019050919050565b600081519050919050565b600081519050919050565b600081519050919050565b6000602082019050919050565b6000620018f482620018fb565b9050919050565b600073ffffffffffffffffffffffffffffffffffffffff82169050919050565b6000819050919050565b60006200193282620018e7565b9050919050565b6000819050919050565b6000620019508262001957565b9050919050565b60006200196482620018fb565b9050919050565b82818337600083830152505050565b60005b838110156200199a5780820151818401526020810190506200197d565b83811115620019aa576000848401525b50505050565b6000601f19601f830116905091905056fe60806040526040516103b73803806103b7833981018060405260e081101561002657600080fd5b810190808051906020019092919080519060200190929190805164010000000081111561005257600080fd5b8281019050602081018481111561006857600080fd5b815185600182028301116401000000008211171561008557600080fd5b505092919060200180519060200190929190805190602001909291908051906020019092919080519060200190929190505050866000819055508560018190555084600290805190602001906100dc929190610105565b5083600381905550826004819055508160058190555080600681905550505050505050506101aa565b828054600181600116156101000203166002900490600052602060002090601f016020900481019282601f1061014657805160ff1916838001178555610174565b82800160010185558215610174579182015b82811115610173578251825591602001919060010190610158565b5b5090506101819190610185565b5090565b6101a791905b808211156101a357600081600090555060010161018b565b5090565b90565b6101fe806101b96000396000f3fe608060405260043610610041576000357c0100000000000000000000000000000000000000000000000000000000900463ffffffff168063b614666514610046575b600080fd5b34801561005257600080fd5b5061005b610100565b6040518088815260200187815260200180602001868152602001858152602001848152602001838152602001828103825287818151815260200191508051906020019080838360005b838110156100bf5780820151818401526020810190506100a4565b50505050905090810190601f1680156100ec5780820380516001836020036101000a031916815260200191505b509850505050505050505060405180910390f35b60008060606000806000806000546001546002600354600454600554600654848054600181600116156101000203166002900480601f0160208091040260200160405190810160405280929190818152602001828054600181600116156101000203166002900480156101b45780601f10610189576101008083540402835291602001916101b4565b820191906000526020600020905b81548152906001019060200180831161019757829003601f168201915b5050505050945096509650965096509650965096509091929394959656fea165627a7a72305820bb1e9fd508cf9186ca267ac2d8c89bd224fa04406b5477005424e89bfba5f93d002960806040526040516107ab3803806107ab8339810180604052606081101561002657600080fd5b8101908080519060200190929190805164010000000081111561004857600080fd5b8281019050602081018481111561005e57600080fd5b815185600182028301116401000000008211171561007b57600080fd5b5050929190602001805190602001909291905050508260018190555081600090805190602001906100ad9291906100bd565b5080600281905550505050610162565b828054600181600116156101000203166002900490600052602060002090601f016020900481019282601f106100fe57805160ff191683800117855561012c565b8280016001018555821561012c579182015b8281111561012b578251825591602001919060010190610110565b5b509050610139919061013d565b5090565b61015f91905b8082111561015b576000816000905550600101610143565b5090565b90565b61063a806101716000396000f3fe60806040526004361061008e576000357c0100000000000000000000000000000000000000000000000000000000900463ffffffff16806342f74cd714610093578063514ad1f514610131578063572aee1f1461015c5780638da5cb5b146101ec578063924c19f7146102175780639304821814610245578063a7a38f0b14610289578063aa15efc814610304575b600080fd5b34801561009f57600080fd5b506100a8610370565b6040518084815260200180602001838152602001828103825284818151815260200191508051906020019080838360005b838110156100f45780820151818401526020810190506100d9565b50505050905090810190601f1680156101215780820380516001836020036101000a031916815260200191505b5094505050505060405180910390f35b34801561013d57600080fd5b50610146610425565b6040518082815260200191505060405180910390f35b34801561016857600080fd5b5061017161042b565b6040518080602001828103825283818151815260200191508051906020019080838360005b838110156101b1578082015181840152602081019050610196565b50505050905090810190601f1680156101de5780820380516001836020036101000a031916815260200191505b509250505060405180910390f35b3480156101f857600080fd5b506102016104c9565b6040518082815260200191505060405180910390f35b6102436004803603602081101561022d57600080fd5b81019080803590602001909291905050506104cf565b005b6102876004803603602081101561025b57600080fd5b81019080803573ffffffffffffffffffffffffffffffffffffffff1690602001909291905050506104d9565b005b34801561029557600080fd5b506102c2600480360360208110156102ac57600080fd5b8101908080359060200190929190505050610542565b604051808273ffffffffffffffffffffffffffffffffffffffff1673ffffffffffffffffffffffffffffffffffffffff16815260200191505060405180910390f35b34801561031057600080fd5b50610319610580565b6040518080602001828103825283818151815260200191508051906020019060200280838360005b8381101561035c578082015181840152602081019050610341565b505050509050019250505060405180910390f35b6000606060006001546000600254818054600181600116156101000203166002900480601f0160208091040260200160405190810160405280929190818152602001828054600181600116156101000203166002900480156104135780601f106103e857610100808354040283529160200191610413565b820191906000526020600020905b8154815290600101906020018083116103f657829003601f168201915b50505050509150925092509250909192565b60015481565b60008054600181600116156101000203166002900480601f0160208091040260200160405190810160405280929190818152602001828054600181600116156101000203166002900480156104c15780601f10610496576101008083540402835291602001916104c1565b820191906000526020600020905b8154815290600101906020018083116104a457829003601f168201915b505050505081565b60025481565b8060028190555050565b60038190806001815401808255809150509060018203906000526020600020016000909192909190916101000a81548173ffffffffffffffffffffffffffffffffffffffff021916908373ffffffffffffffffffffffffffffffffffffffff1602179055505050565b60038181548110151561055157fe5b906000526020600020016000915054906101000a900473ffffffffffffffffffffffffffffffffffffffff1681565b6060600380548060200260200160405190810160405280929190818152602001828054801561060457602002820191906000526020600020905b8160009054906101000a900473ffffffffffffffffffffffffffffffffffffffff1673ffffffffffffffffffffffffffffffffffffffff16815260200190600101908083116105ba575b505050505090509056fea165627a7a72305820b6e2918a816f3c35705774f08c143c5c649c321bc64de9e038b271f7eaa82538002960806040526040516104c83803806104c88339810180604052604081101561002657600080fd5b8101908080519060200190929190805164010000000081111561004857600080fd5b8281019050602081018481111561005e57600080fd5b815185600182028301116401000000008211171561007b57600080fd5b50509291905050508160008190555080600190805190602001906100a09291906100a8565b50505061014d565b828054600181600116156101000203166002900490600052602060002090601f016020900481019282601f106100e957805160ff1916838001178555610117565b82800160010185558215610117579182015b828111156101165782518255916020019190600101906100fb565b5b5090506101249190610128565b5090565b61014a91905b8082111561014657600081600090555060010161012e565b5090565b90565b61036c8061015c6000396000f3fe60806040526004361061006d576000357c0100000000000000000000000000000000000000000000000000000000900463ffffffff16806306fdde0314610072578063632ca5c9146101025780638608e6bc1461016e578063af640d0f1461019c578063f33b2f0d146101c7575b600080fd5b34801561007e57600080fd5b506100876101f5565b6040518080602001828103825283818151815260200191508051906020019080838360005b838110156100c75780820151818401526020810190506100ac565b50505050905090810190601f1680156100f45780820380516001836020036101000a031916815260200191505b509250505060405180910390f35b34801561010e57600080fd5b50610117610293565b6040518080602001828103825283818151815260200191508051906020019060200280838360005b8381101561015a57808201518184015260208101905061013f565b505050509050019250505060405180910390f35b61019a6004803603602081101561018457600080fd5b81019080803590602001909291905050506102eb565b005b3480156101a857600080fd5b506101b161031a565b6040518082815260200191505060405180910390f35b6101f3600480360360208110156101dd57600080fd5b8101908080359060200190929190505050610320565b005b60018054600181600116156101000203166002900480601f01602080910402602001604051908101604052809291908181526020018280546001816001161561010002031660029004801561028b5780601f106102605761010080835404028352916020019161028b565b820191906000526020600020905b81548152906001019060200180831161026e57829003601f168201915b505050505081565b606060028054806020026020016040519081016040528092919081815260200182805480156102e157602002820191906000526020600020905b8154815260200190600101908083116102cd575b5050505050905090565b600281908060018154018082558091505090600182039060005260206000200160009091929091909150555050565b60005481565b60028181548110151561032f57fe5b90600052602060002001600090555056fea165627a7a72305820136f3bb5b2082cfd0bb98fa240a409a3afe511e04b6a74b3f3dc92b0e4db5a1d0029a265627a7a723058209542996d1f320bd55056528c3a96a4851c089270a3803d1d9d8d1e631331fbda6c6578706572696d656e74616cf50037",
  "source": "pragma solidity ^0.5.0;\r\npragma experimental ABIEncoderV2;\r\n\r\nimport \"./Transaction.sol\";\r\nimport \"./Art.sol\";\r\nimport \"./People.sol\";\r\n\r\ncontract Arts {\r\n    \r\n    Art[] arts;\r\n    People[] people;\r\n\r\n    mapping(uint => Art) artInfo;\r\n    mapping(uint => Transaction) transactionInfo;\r\n\r\n    mapping(uint => address) artOwner;\r\n\r\n    mapping(uint => People) peopleInfo;\r\n\r\n    \r\n    constructor(Art[] memory _array, People[] memory _p) public payable {\r\n\t\t  arts = _array;\r\n\t\t  people = _p;\r\n    }\r\n    \r\n    function getArtInfo(uint _artId) public payable returns(uint, string memory, string memory, Transaction[] memory) {\r\n        return (artInfo[_artId].artId(), artInfo[_artId].artName(), peopleInfo[artInfo[_artId].owner()].name(), artInfo[_artId].getHistory());\r\n    }\r\n    \r\n    function addPeople(uint _id, string memory _name) public payable {\r\n        People p = (new People)(_id, _name);\r\n        people.push(p);\r\n        peopleInfo[_id] = p;\r\n    }\r\n    \r\n    function addArt(uint _artId, string memory name, uint owner) public payable {\r\n        Art a = (new Art)(_artId, name, owner);\r\n        arts.push(a);\r\n        artInfo[_artId] = a;\r\n    }\r\n\r\n    function Time_call() public view returns (uint256){\r\n        return now;\r\n    }\r\n\r\n    function applyTransaction(uint _transactionId, uint oldOwner, uint newOwner, uint art, uint _price) public payable {\r\n        require(oldOwner != newOwner);\r\n        require(_price > 0);\r\n        require(artInfo[art].owner() == oldOwner);\r\n        \r\n        for(uint i = 0; i < peopleInfo[oldOwner].getArts().length; i++){\r\n          if(peopleInfo[oldOwner].getArts()[i] == artInfo[art].artId()) {\r\n            peopleInfo[oldOwner].deleteArt(i);\r\n          }\r\n        }\r\n        peopleInfo[newOwner].pushArt(art);\r\n        Transaction t = (new Transaction)(_transactionId, artInfo[art].artId(), artInfo[art].artName(), _price, Time_call(), oldOwner, newOwner);\r\n        artInfo[art].addHistory(t);\r\n        artInfo[art].changeOwner(newOwner);\r\n        transactionInfo[_transactionId] = t;\r\n    }\r\n    \r\n}",
  "sourcePath": "C:/Users/user/Desktop/dapp-gallery/contracts/Arts.sol",
  "compiler": {
    "name": "solc",
    "version": "0.5.0+commit.1d4f565a.Emscripten.clang"
  },
  "schemaVersion": "3.0.9",
  "updatedAt": "2019-05-17T08:26:08.827Z",
  "devdoc": {
    "methods": {}
  },
  "userdoc": {
    "methods": {}
  }
}