{
  "contractName": "People",
  "abi": [
    {
      "constant": true,
      "inputs": [],
      "name": "name",
      "outputs": [
        {
          "name": "",
          "type": "string"
        }
      ],
      "payable": false,
      "stateMutability": "view",
      "type": "function"
    },
    {
      "constant": true,
      "inputs": [],
      "name": "id",
      "outputs": [
        {
          "name": "",
          "type": "uint256"
        }
      ],
      "payable": false,
      "stateMutability": "view",
      "type": "function"
    },
    {
      "inputs": [
        {
          "name": "_id",
          "type": "uint256"
        },
        {
          "name": "_name",
          "type": "string"
        }
      ],
      "payable": true,
      "stateMutability": "payable",
      "type": "constructor"
    },
    {
      "constant": true,
      "inputs": [],
      "name": "getArts",
      "outputs": [
        {
          "name": "",
          "type": "uint256[]"
        }
      ],
      "payable": false,
      "stateMutability": "view",
      "type": "function"
    },
    {
      "constant": false,
      "inputs": [
        {
          "name": "i",
          "type": "uint256"
        }
      ],
      "name": "deleteArt",
      "outputs": [],
      "payable": true,
      "stateMutability": "payable",
      "type": "function"
    },
    {
      "constant": false,
      "inputs": [
        {
          "name": "i",
          "type": "uint256"
        }
      ],
      "name": "pushArt",
      "outputs": [],
      "payable": true,
      "stateMutability": "payable",
      "type": "function"
    }
  ],
  "bytecode": "0x60806040526040516104c83803806104c88339810180604052604081101561002657600080fd5b8101908080519060200190929190805164010000000081111561004857600080fd5b8281019050602081018481111561005e57600080fd5b815185600182028301116401000000008211171561007b57600080fd5b50509291905050508160008190555080600190805190602001906100a09291906100a8565b50505061014d565b828054600181600116156101000203166002900490600052602060002090601f016020900481019282601f106100e957805160ff1916838001178555610117565b82800160010185558215610117579182015b828111156101165782518255916020019190600101906100fb565b5b5090506101249190610128565b5090565b61014a91905b8082111561014657600081600090555060010161012e565b5090565b90565b61036c8061015c6000396000f3fe60806040526004361061006d576000357c0100000000000000000000000000000000000000000000000000000000900463ffffffff16806306fdde0314610072578063632ca5c9146101025780638608e6bc1461016e578063af640d0f1461019c578063f33b2f0d146101c7575b600080fd5b34801561007e57600080fd5b506100876101f5565b6040518080602001828103825283818151815260200191508051906020019080838360005b838110156100c75780820151818401526020810190506100ac565b50505050905090810190601f1680156100f45780820380516001836020036101000a031916815260200191505b509250505060405180910390f35b34801561010e57600080fd5b50610117610293565b6040518080602001828103825283818151815260200191508051906020019060200280838360005b8381101561015a57808201518184015260208101905061013f565b505050509050019250505060405180910390f35b61019a6004803603602081101561018457600080fd5b81019080803590602001909291905050506102eb565b005b3480156101a857600080fd5b506101b161031a565b6040518082815260200191505060405180910390f35b6101f3600480360360208110156101dd57600080fd5b8101908080359060200190929190505050610320565b005b60018054600181600116156101000203166002900480601f01602080910402602001604051908101604052809291908181526020018280546001816001161561010002031660029004801561028b5780601f106102605761010080835404028352916020019161028b565b820191906000526020600020905b81548152906001019060200180831161026e57829003601f168201915b505050505081565b606060028054806020026020016040519081016040528092919081815260200182805480156102e157602002820191906000526020600020905b8154815260200190600101908083116102cd575b5050505050905090565b600281908060018154018082558091505090600182039060005260206000200160009091929091909150555050565b60005481565b60028181548110151561032f57fe5b90600052602060002001600090555056fea165627a7a72305820136f3bb5b2082cfd0bb98fa240a409a3afe511e04b6a74b3f3dc92b0e4db5a1d0029",
  "source": "pragma solidity ^0.5.0;\r\ncontract People {\r\n  uint public id;\r\n  string public name;\r\n  uint[] ownedArts;\r\n  \r\n  constructor(uint _id, string memory _name) public payable {\r\n      id =_id;\r\n      name = _name;\r\n  }\r\n  function getArts() public view returns(uint[] memory) {\r\n      return ownedArts;\r\n  }\r\n  function deleteArt(uint i) public payable {\r\n      delete ownedArts[i];\r\n  }\r\n  function pushArt(uint i) public payable {\r\n      ownedArts.push(i);\r\n  }\r\n}",
  "sourcePath": "C:\\Users\\user\\Desktop\\dapp-gallery\\contracts\\People.sol",
  "compiler": {
    "name": "solc",
    "version": "0.5.0+commit.1d4f565a.Emscripten.clang"
  },
  "schemaVersion": "3.0.9",
  "updatedAt": "2019-05-17T08:33:11.606Z",
  "devdoc": {
    "methods": {}
  },
  "userdoc": {
    "methods": {}
  }
}