{
  "contractName": "Transaction",
  "abi": [
    {
      "inputs": [
        {
          "name": "_transactionId",
          "type": "uint256"
        },
        {
          "name": "_artId",
          "type": "uint256"
        },
        {
          "name": "_artName",
          "type": "string"
        },
        {
          "name": "_price",
          "type": "uint256"
        },
        {
          "name": "_date",
          "type": "uint256"
        },
        {
          "name": "_old_owner",
          "type": "uint256"
        },
        {
          "name": "_new_owner",
          "type": "uint256"
        }
      ],
      "payable": true,
      "stateMutability": "payable",
      "type": "constructor"
    },
    {
      "constant": true,
      "inputs": [],
      "name": "getTransactionInfo",
      "outputs": [
        {
          "name": "",
          "type": "uint256"
        },
        {
          "name": "",
          "type": "uint256"
        },
        {
          "name": "",
          "type": "string"
        },
        {
          "name": "",
          "type": "uint256"
        },
        {
          "name": "",
          "type": "uint256"
        },
        {
          "name": "",
          "type": "uint256"
        },
        {
          "name": "",
          "type": "uint256"
        }
      ],
      "payable": false,
      "stateMutability": "view",
      "type": "function"
    }
  ],
  "bytecode": "0x60806040526040516103b73803806103b7833981018060405260e081101561002657600080fd5b810190808051906020019092919080519060200190929190805164010000000081111561005257600080fd5b8281019050602081018481111561006857600080fd5b815185600182028301116401000000008211171561008557600080fd5b505092919060200180519060200190929190805190602001909291908051906020019092919080519060200190929190505050866000819055508560018190555084600290805190602001906100dc929190610105565b5083600381905550826004819055508160058190555080600681905550505050505050506101aa565b828054600181600116156101000203166002900490600052602060002090601f016020900481019282601f1061014657805160ff1916838001178555610174565b82800160010185558215610174579182015b82811115610173578251825591602001919060010190610158565b5b5090506101819190610185565b5090565b6101a791905b808211156101a357600081600090555060010161018b565b5090565b90565b6101fe806101b96000396000f3fe608060405260043610610041576000357c0100000000000000000000000000000000000000000000000000000000900463ffffffff168063b614666514610046575b600080fd5b34801561005257600080fd5b5061005b610100565b6040518088815260200187815260200180602001868152602001858152602001848152602001838152602001828103825287818151815260200191508051906020019080838360005b838110156100bf5780820151818401526020810190506100a4565b50505050905090810190601f1680156100ec5780820380516001836020036101000a031916815260200191505b509850505050505050505060405180910390f35b60008060606000806000806000546001546002600354600454600554600654848054600181600116156101000203166002900480601f0160208091040260200160405190810160405280929190818152602001828054600181600116156101000203166002900480156101b45780601f10610189576101008083540402835291602001916101b4565b820191906000526020600020905b81548152906001019060200180831161019757829003601f168201915b5050505050945096509650965096509650965096509091929394959656fea165627a7a72305820bb1e9fd508cf9186ca267ac2d8c89bd224fa04406b5477005424e89bfba5f93d0029",
  "source": "pragma solidity ^0.5.0;\r\n\r\ncontract Transaction {\r\n  uint transactionId;\r\n  uint artId;\r\n  string artName;\r\n  uint price;\r\n  uint256 date;\r\n  uint old_owner;\r\n  uint new_owner;\r\n  constructor(uint _transactionId, uint _artId, string memory _artName, uint _price, uint256 _date, uint _old_owner, uint _new_owner) public payable {\r\n    transactionId = _transactionId;\r\n    artId = _artId;\r\n    artName = _artName;\r\n    price = _price;\r\n    date = _date;\r\n    old_owner = _old_owner;\r\n    new_owner = _new_owner;\r\n  }\r\n  \r\n\r\n  function getTransactionInfo() public view returns(uint, uint, string memory, uint, uint256, uint, uint) {\r\n    return (transactionId, artId, artName, price, date, old_owner, new_owner);\r\n  }\r\n}",
  "sourcePath": "C:\\Users\\user\\Desktop\\dapp-gallery\\contracts\\Transaction.sol",
  "compiler": {
    "name": "solc",
    "version": "0.5.0+commit.1d4f565a.Emscripten.clang"
  },
  "schemaVersion": "3.0.9",
  "updatedAt": "2019-05-17T08:33:11.619Z",
  "devdoc": {
    "methods": {}
  },
  "userdoc": {
    "methods": {}
  }
}